{
  "contractName": "Shop",
  "abi": [
    {
      "inputs": [],
      "stateMutability": "nonpayable",
      "type": "constructor"
    },
    {
      "anonymous": false,
      "inputs": [
        {
          "indexed": false,
          "internalType": "uint256",
          "name": "id",
          "type": "uint256"
        },
        {
          "indexed": false,
          "internalType": "string",
          "name": "name",
          "type": "string"
        },
        {
          "indexed": false,
          "internalType": "string",
          "name": "description",
          "type": "string"
        },
        {
          "indexed": false,
          "internalType": "bool",
          "name": "solded",
          "type": "bool"
        },
        {
          "indexed": false,
          "internalType": "address payable",
          "name": "owner",
          "type": "address"
        },
        {
          "indexed": false,
          "internalType": "uint256",
          "name": "price",
          "type": "uint256"
        }
      ],
      "name": "CreateProduct",
      "type": "event"
    },
    {
      "anonymous": false,
      "inputs": [
        {
          "indexed": false,
          "internalType": "uint256",
          "name": "id",
          "type": "uint256"
        },
        {
          "indexed": false,
          "internalType": "string",
          "name": "name",
          "type": "string"
        },
        {
          "indexed": false,
          "internalType": "string",
          "name": "description",
          "type": "string"
        },
        {
          "indexed": false,
          "internalType": "bool",
          "name": "solded",
          "type": "bool"
        },
        {
          "indexed": false,
          "internalType": "address payable",
          "name": "owner",
          "type": "address"
        },
        {
          "indexed": false,
          "internalType": "uint256",
          "name": "price",
          "type": "uint256"
        }
      ],
      "name": "PurchsedProduct",
      "type": "event"
    },
    {
      "inputs": [],
      "name": "count",
      "outputs": [
        {
          "internalType": "uint256",
          "name": "",
          "type": "uint256"
        }
      ],
      "stateMutability": "view",
      "type": "function",
      "constant": true
    },
    {
      "inputs": [],
      "name": "shopName",
      "outputs": [
        {
          "internalType": "string",
          "name": "",
          "type": "string"
        }
      ],
      "stateMutability": "view",
      "type": "function",
      "constant": true
    },
    {
      "inputs": [
        {
          "internalType": "uint256",
          "name": "",
          "type": "uint256"
        }
      ],
      "name": "shopProducts",
      "outputs": [
        {
          "internalType": "uint256",
          "name": "id",
          "type": "uint256"
        },
        {
          "internalType": "string",
          "name": "name",
          "type": "string"
        },
        {
          "internalType": "string",
          "name": "description",
          "type": "string"
        },
        {
          "internalType": "bool",
          "name": "sold",
          "type": "bool"
        },
        {
          "internalType": "address payable",
          "name": "owner",
          "type": "address"
        },
        {
          "internalType": "uint256",
          "name": "price",
          "type": "uint256"
        }
      ],
      "stateMutability": "view",
      "type": "function",
      "constant": true
    },
    {
      "inputs": [
        {
          "internalType": "string",
          "name": "name",
          "type": "string"
        },
        {
          "internalType": "uint256",
          "name": "price",
          "type": "uint256"
        },
        {
          "internalType": "string",
          "name": "description",
          "type": "string"
        }
      ],
      "name": "createShopProduct",
      "outputs": [],
      "stateMutability": "nonpayable",
      "type": "function"
    },
    {
      "inputs": [
        {
          "internalType": "uint256",
          "name": "_id",
          "type": "uint256"
        }
      ],
      "name": "purchasedShopProduct",
      "outputs": [],
      "stateMutability": "payable",
      "type": "function",
      "payable": true
    }
  ],
  "bytecode": "0x608060405260006001553480156200001657600080fd5b506040518060400160405280600c81526020017f4d72204265626f2053686f70000000000000000000000000000000000000000081525060009080519060200190620000649291906200006b565b5062000180565b82805462000079906200014a565b90600052602060002090601f0160209004810192826200009d5760008555620000e9565b82601f10620000b857805160ff1916838001178555620000e9565b82800160010185558215620000e9579182015b82811115620000e8578251825591602001919060010190620000cb565b5b509050620000f89190620000fc565b5090565b5b8082111562000117576000816000905550600101620000fd565b5090565b7f4e487b7100000000000000000000000000000000000000000000000000000000600052602260045260246000fd5b600060028204905060018216806200016357607f821691505b602082108114156200017a57620001796200011b565b5b50919050565b61132a80620001906000396000f3fe60806040526004361061004a5760003560e01c806306661abd1461004f57806313dccad81461007a578063a21bb726146100bc578063d1118f5a146100d8578063d83e3c0414610103575b600080fd5b34801561005b57600080fd5b5061006461012c565b6040516100719190610b0d565b60405180910390f35b34801561008657600080fd5b506100a1600480360381019061009c9190610b68565b610132565b6040516100b396959493929190610c8a565b60405180910390f35b6100d660048036038101906100d19190610b68565b6102ab565b005b3480156100e457600080fd5b506100ed610782565b6040516100fa9190610cf9565b60405180910390f35b34801561010f57600080fd5b5061012a60048036038101906101259190610e50565b610810565b005b60015481565b600260205280600052604060002060009150905080600001549080600101805461015b90610f0a565b80601f016020809104026020016040519081016040528092919081815260200182805461018790610f0a565b80156101d45780601f106101a9576101008083540402835291602001916101d4565b820191906000526020600020905b8154815290600101906020018083116101b757829003601f168201915b5050505050908060020180546101e990610f0a565b80601f016020809104026020016040519081016040528092919081815260200182805461021590610f0a565b80156102625780601f1061023757610100808354040283529160200191610262565b820191906000526020600020905b81548152906001019060200180831161024557829003601f168201915b5050505050908060030160009054906101000a900460ff16908060030160019054906101000a900473ffffffffffffffffffffffffffffffffffffffff16908060040154905086565b6000600260008381526020019081526020016000206040518060c0016040529081600082015481526020016001820180546102e590610f0a565b80601f016020809104026020016040519081016040528092919081815260200182805461031190610f0a565b801561035e5780601f106103335761010080835404028352916020019161035e565b820191906000526020600020905b81548152906001019060200180831161034157829003601f168201915b5050505050815260200160028201805461037790610f0a565b80601f01602080910402602001604051908101604052809291908181526020018280546103a390610f0a565b80156103f05780601f106103c5576101008083540402835291602001916103f0565b820191906000526020600020905b8154815290600101906020018083116103d357829003601f168201915b505050505081526020016003820160009054906101000a900460ff161515151581526020016003820160019054906101000a900473ffffffffffffffffffffffffffffffffffffffff1673ffffffffffffffffffffffffffffffffffffffff1673ffffffffffffffffffffffffffffffffffffffff16815260200160048201548152505090506000816080015190503373ffffffffffffffffffffffffffffffffffffffff168173ffffffffffffffffffffffffffffffffffffffff1614156104ee576040517f08c379a00000000000000000000000000000000000000000000000000000000081526004016104e590610f88565b60405180910390fd5b8160a00151341015610535576040517f08c379a000000000000000000000000000000000000000000000000000000000815260040161052c9061101a565b60405180910390fd5b6000826000015111801561054f5750600154826000015111155b61058e576040517f08c379a000000000000000000000000000000000000000000000000000000000815260040161058590611086565b60405180910390fd5b8160600151156105d3576040517f08c379a00000000000000000000000000000000000000000000000000000000081526004016105ca906110f2565b60405180910390fd5b33826080019073ffffffffffffffffffffffffffffffffffffffff16908173ffffffffffffffffffffffffffffffffffffffff168152505060018260600190151590811515815250508160026000858152602001908152602001600020600082015181600001556020820151816001019080519060200190610656929190610a51565b506040820151816002019080519060200190610673929190610a51565b5060608201518160030160006101000a81548160ff02191690831515021790555060808201518160030160016101000a81548173ffffffffffffffffffffffffffffffffffffffff021916908373ffffffffffffffffffffffffffffffffffffffff16021790555060a082015181600401559050508073ffffffffffffffffffffffffffffffffffffffff166108fc349081150290604051600060405180830381858888f1935050505015801561072e573d6000803e3d6000fd5b507f1a6b8840373a8ed3619327670635e43c867e24e35e85ae55dc6c097e03b90c3483836020015184604001516001338760a0015160405161077596959493929190610c8a565b60405180910390a1505050565b6000805461078f90610f0a565b80601f01602080910402602001604051908101604052809291908181526020018280546107bb90610f0a565b80156108085780601f106107dd57610100808354040283529160200191610808565b820191906000526020600020905b8154815290600101906020018083116107eb57829003601f168201915b505050505081565b60008211610853576040517f08c379a000000000000000000000000000000000000000000000000000000000815260040161084a90611184565b60405180910390fd5b6000835111610897576040517f08c379a000000000000000000000000000000000000000000000000000000000815260040161088e906111f0565b60405180910390fd5b60008151116108db576040517f08c379a00000000000000000000000000000000000000000000000000000000081526004016108d29061125c565b60405180910390fd5b600160008154809291906108ee906112ab565b91905055506040518060c0016040528060015481526020018481526020018281526020016000151581526020013373ffffffffffffffffffffffffffffffffffffffff16815260200183815250600260006001548152602001908152602001600020600082015181600001556020820151816001019080519060200190610976929190610a51565b506040820151816002019080519060200190610993929190610a51565b5060608201518160030160006101000a81548160ff02191690831515021790555060808201518160030160016101000a81548173ffffffffffffffffffffffffffffffffffffffff021916908373ffffffffffffffffffffffffffffffffffffffff16021790555060a082015181600401559050507f279cc54ed51d8f0cd992883ed5204909d5a4ee1a29910960f0c8db5f90d144bb600154848360003387604051610a4496959493929190610c8a565b60405180910390a1505050565b828054610a5d90610f0a565b90600052602060002090601f016020900481019282610a7f5760008555610ac6565b82601f10610a9857805160ff1916838001178555610ac6565b82800160010185558215610ac6579182015b82811115610ac5578251825591602001919060010190610aaa565b5b509050610ad39190610ad7565b5090565b5b80821115610af0576000816000905550600101610ad8565b5090565b6000819050919050565b610b0781610af4565b82525050565b6000602082019050610b226000830184610afe565b92915050565b6000604051905090565b600080fd5b600080fd5b610b4581610af4565b8114610b5057600080fd5b50565b600081359050610b6281610b3c565b92915050565b600060208284031215610b7e57610b7d610b32565b5b6000610b8c84828501610b53565b91505092915050565b600081519050919050565b600082825260208201905092915050565b60005b83811015610bcf578082015181840152602081019050610bb4565b83811115610bde576000848401525b50505050565b6000601f19601f8301169050919050565b6000610c0082610b95565b610c0a8185610ba0565b9350610c1a818560208601610bb1565b610c2381610be4565b840191505092915050565b60008115159050919050565b610c4381610c2e565b82525050565b600073ffffffffffffffffffffffffffffffffffffffff82169050919050565b6000610c7482610c49565b9050919050565b610c8481610c69565b82525050565b600060c082019050610c9f6000830189610afe565b8181036020830152610cb18188610bf5565b90508181036040830152610cc58187610bf5565b9050610cd46060830186610c3a565b610ce16080830185610c7b565b610cee60a0830184610afe565b979650505050505050565b60006020820190508181036000830152610d138184610bf5565b905092915050565b600080fd5b600080fd5b7f4e487b7100000000000000000000000000000000000000000000000000000000600052604160045260246000fd5b610d5d82610be4565b810181811067ffffffffffffffff82111715610d7c57610d7b610d25565b5b80604052505050565b6000610d8f610b28565b9050610d9b8282610d54565b919050565b600067ffffffffffffffff821115610dbb57610dba610d25565b5b610dc482610be4565b9050602081019050919050565b82818337600083830152505050565b6000610df3610dee84610da0565b610d85565b905082815260208101848484011115610e0f57610e0e610d20565b5b610e1a848285610dd1565b509392505050565b600082601f830112610e3757610e36610d1b565b5b8135610e47848260208601610de0565b91505092915050565b600080600060608486031215610e6957610e68610b32565b5b600084013567ffffffffffffffff811115610e8757610e86610b37565b5b610e9386828701610e22565b9350506020610ea486828701610b53565b925050604084013567ffffffffffffffff811115610ec557610ec4610b37565b5b610ed186828701610e22565b9150509250925092565b7f4e487b7100000000000000000000000000000000000000000000000000000000600052602260045260246000fd5b60006002820490506001821680610f2257607f821691505b60208210811415610f3657610f35610edb565b5b50919050565b7f63616e60742042757920796f75722050726f6475637400000000000000000000600082015250565b6000610f72601683610ba0565b9150610f7d82610f3c565b602082019050919050565b60006020820190508181036000830152610fa181610f65565b9050919050565b7f7468652076616c7565206e6f7420657175616c207072696365206f662074686560008201527f2070726f64756374000000000000000000000000000000000000000000000000602082015250565b6000611004602883610ba0565b915061100f82610fa8565b604082019050919050565b6000602082019050818103600083015261103381610ff7565b9050919050565b7f7468652069642073686f756c64206265206d6f7265207468616e207a65726f00600082015250565b6000611070601f83610ba0565b915061107b8261103a565b602082019050919050565b6000602082019050818103600083015261109f81611063565b9050919050565b7f54686973204974656d20536f6c64656400000000000000000000000000000000600082015250565b60006110dc601083610ba0565b91506110e7826110a6565b602082019050919050565b6000602082019050818103600083015261110b816110cf565b9050919050565b7f5468652070726963652053686f7564206265204d6f7265205468616e20206f7260008201527f20657175616c2031000000000000000000000000000000000000000000000000602082015250565b600061116e602883610ba0565b915061117982611112565b604082019050919050565b6000602082019050818103600083015261119d81611161565b9050919050565b7f596f7572204e616d6520497320656d7074790000000000000000000000000000600082015250565b60006111da601283610ba0565b91506111e5826111a4565b602082019050919050565b60006020820190508181036000830152611209816111cd565b9050919050565b7f596f7572204465736372697074696f6e20497320656d70747900000000000000600082015250565b6000611246601983610ba0565b915061125182611210565b602082019050919050565b6000602082019050818103600083015261127581611239565b9050919050565b7f4e487b7100000000000000000000000000000000000000000000000000000000600052601160045260246000fd5b60006112b682610af4565b91507fffffffffffffffffffffffffffffffffffffffffffffffffffffffffffffffff8214156112e9576112e861127c565b5b60018201905091905056fea2646970667358221220cb7a3925e92878191ca803950a710c56e42a79e8267cce71b0a59e8aba6d7c0a64736f6c634300080a0033",
  "immutableReferences": {},
  "source": "// SPDX-License-Identifier: GPL-3.0\n\npragma solidity >=0.7.0 ;\n\ncontract Shop{\n\n    string public shopName ;\n    uint public count = 0;\n\n    constructor() {\n        shopName = \"Mr Bebo Shop\";\n    }\n\n    struct Product {\n        uint id;\n        string name;\n        string description;\n        bool sold;\n        address  payable owner;\n        uint price;\n    }\n\n      event CreateProduct (\n        uint id,\n        string name,\n        string description,\n        bool solded,\n        address  payable owner,\n        uint price\n   );\n\n        event PurchsedProduct (\n        uint id,\n        string name,\n        string description,\n        bool solded,\n        address  payable owner,\n        uint price\n   );\n\n\n    mapping (uint =>Product) public shopProducts;\n\n\n    function createShopProduct(string  memory name, uint price, string memory description) public {\n\n       require(price>0,\"The price Shoud be More Than  or equal 1\");\n       require(bytes(name).length > 0,\"Your Name Is empty\");\n        require(bytes(description).length > 0,\"Your Description Is empty\");\n        count++;\n        shopProducts[count]=Product(count,name,description,false,payable (msg.sender),price);\n\n        emit CreateProduct(count,name,description,false,payable (msg.sender),price);\n\n\n    }\n\n    function purchasedShopProduct(uint _id) public payable {\n        Product memory singleProduct  = shopProducts[_id];\n        address payable seller = singleProduct.owner;\n\n        require(seller != msg.sender,\"can`t Buy your Product\");\n        require(msg.value >= singleProduct.price,\"the value not equal price of the product\");\n        require(singleProduct.id >0 &&singleProduct.id <= count ,\"the id should be more than zero\");\n        require(!singleProduct.sold,\"This Item Solded\");\n\n        singleProduct.owner = payable(msg.sender);\n        singleProduct.sold = true;\n        shopProducts[_id]=singleProduct;\n          payable( seller).transfer(msg.value);\n      emit PurchsedProduct(_id,singleProduct.name,singleProduct.description,true,payable (msg.sender),singleProduct.price);\n\n    }\n\n}\n\n",
  "sourcePath": "/Users/ftos/Desktop/webEthStack/contracts/Shop.sol",
  "compiler": {
    "name": "solc",
    "version": "0.8.10+commit.fc410830.Emscripten.clang"
  },
  "schemaVersion": "3.4.3",
  "updatedAt": "2021-11-30T07:45:56.044Z",
  "networkType": "ethereum",
  "devdoc": {
    "kind": "dev",
    "methods": {},
    "version": 1
  },
  "userdoc": {
    "kind": "user",
    "methods": {},
    "version": 1
  }
}